{
  "contractName": "HelloWorld",
  "abi": [
    {
      "inputs": [],
      "name": "sayHello",
      "outputs": [
        {
          "internalType": "string",
          "name": "",
          "type": "string"
        }
      ],
      "stateMutability": "pure",
      "type": "function"
    },
    {
      "inputs": [],
      "name": "getName",
      "outputs": [
        {
          "internalType": "string",
          "name": "",
          "type": "string"
        }
      ],
      "stateMutability": "view",
      "type": "function"
    },
    {
      "inputs": [
        {
          "internalType": "string",
          "name": "newName",
          "type": "string"
        }
      ],
      "name": "setName",
      "outputs": [],
      "stateMutability": "nonpayable",
      "type": "function"
    },
    {
      "inputs": [],
      "name": "deposit",
      "outputs": [],
      "stateMutability": "payable",
      "type": "function"
    }
  ],
  "bytecode": "60806040526040518060400160405280600d81526020017f4361707461696e436163747573000000000000000000000000000000000000008152506000908051906020019061004f929190610062565b5034801561005c57600080fd5b50610166565b82805461006e90610105565b90600052602060002090601f01602090048101928261009057600085556100d7565b82601f106100a957805160ff19168380011785556100d7565b828001600101855582156100d7579182015b828111156100d65782518255916020019190600101906100bb565b5b5090506100e491906100e8565b5090565b5b808211156101015760008160009055506001016100e9565b5090565b6000600282049050600182168061011d57607f821691505b6020821081141561013157610130610137565b5b50919050565b7f4e487b7100000000000000000000000000000000000000000000000000000000600052602260045260246000fd5b61067d806101756000396000f3fe60806040526004361061003f5760003560e01c806317d7de7c14610044578063c47f00271461006f578063d0e30db014610098578063ef5fb05b146100a2575b600080fd5b34801561005057600080fd5b506100596100cd565b6040516100669190610416565b60405180910390f35b34801561007b57600080fd5b506100966004803603810190610091919061035c565b61015f565b005b6100a0610179565b005b3480156100ae57600080fd5b506100b7610214565b6040516100c49190610416565b60405180910390f35b6060600080546100dc90610577565b80601f016020809104026020016040519081016040528092919081815260200182805461010890610577565b80156101555780601f1061012a57610100808354040283529160200191610155565b820191906000526020600020905b81548152906001019060200180831161013857829003601f168201915b5050505050905090565b8060009080519060200190610175929190610251565b5050565b600034116101bc576040517f08c379a00000000000000000000000000000000000000000000000000000000081526004016101b390610438565b60405180910390fd5b34600160003373ffffffffffffffffffffffffffffffffffffffff1673ffffffffffffffffffffffffffffffffffffffff168152602001908152602001600020600082825461020b91906104d5565b92505081905550565b60606040518060400160405280600c81526020017f48656c6c6f20576f726c64210000000000000000000000000000000000000000815250905090565b82805461025d90610577565b90600052602060002090601f01602090048101928261027f57600085556102c6565b82601f1061029857805160ff19168380011785556102c6565b828001600101855582156102c6579182015b828111156102c55782518255916020019190600101906102aa565b5b5090506102d391906102d7565b5090565b5b808211156102f05760008160009055506001016102d8565b5090565b600061030761030284610489565b610458565b90508281526020810184848401111561031f57600080fd5b61032a848285610535565b509392505050565b600082601f83011261034357600080fd5b81356103538482602086016102f4565b91505092915050565b60006020828403121561036e57600080fd5b600082013567ffffffffffffffff81111561038857600080fd5b61039484828501610332565b91505092915050565b60006103a8826104b9565b6103b281856104c4565b93506103c2818560208601610544565b6103cb81610636565b840191505092915050565b60006103e3601b836104c4565b91507f56616c7565206d757374206265206469666572656e74206f66203000000000006000830152602082019050919050565b60006020820190508181036000830152610430818461039d565b905092915050565b60006020820190508181036000830152610451816103d6565b9050919050565b6000604051905081810181811067ffffffffffffffff8211171561047f5761047e610607565b5b8060405250919050565b600067ffffffffffffffff8211156104a4576104a3610607565b5b601f19601f8301169050602081019050919050565b600081519050919050565b600082825260208201905092915050565b60006104e08261052b565b91506104eb8361052b565b9250827fffffffffffffffffffffffffffffffffffffffffffffffffffffffffffffffff038211156105205761051f6105a9565b5b828201905092915050565b6000819050919050565b82818337600083830152505050565b60005b83811015610562578082015181840152602081019050610547565b83811115610571576000848401525b50505050565b6000600282049050600182168061058f57607f821691505b602082108114156105a3576105a26105d8565b5b50919050565b7f4e487b7100000000000000000000000000000000000000000000000000000000600052601160045260246000fd5b7f4e487b7100000000000000000000000000000000000000000000000000000000600052602260045260246000fd5b7f4e487b7100000000000000000000000000000000000000000000000000000000600052604160045260246000fd5b6000601f19601f830116905091905056fea2646970667358221220b5512c54ea11a60322f6cfd3e93f48e38efe1851a61a8e2614d2026cc2d5f63964736f6c63430008000033",
  "immutableReferences": {},
  "source": "// *****************************************************************************\n// IMPORTANT: If you update this code then make sure to recompile\n// it and update the .json file as well so that they\n// remain in sync for consistent test executions.\n// With that said, there shouldn't be any reason to recompile this, like ever...\n// *****************************************************************************\n\npragma solidity >=0.7.0;\n\ncontract HelloWorld {\n  string private name = \"CaptainCactus\";\n  mapping (address => uint256) deposits;\n\n  function sayHello () public pure returns (string memory) {\n    return 'Hello World!';\n  }\n\n  function getName() public view returns (string memory)\n  {\n      return name;\n  }\n\n  function setName(string memory newName) public\n  {\n      name = newName;\n  }\n\n  function deposit() public payable {\n    require(msg.value > 0, \"Value must be diferent of 0\");\n    deposits[msg.sender] += msg.value;\n  }\n}\n",
  "sourcePath": "/Users/jordigironamezcua/pruebas/contracts/HelloWorld.sol",
  "compiler": {
    "name": "solc",
    "version": "0.8.0+commit.c7dfd78e.Emscripten.clang"
  },
  "schemaVersion": "3.3.3",
  "updatedAt": "2021-02-09T14:39:09.955Z",
  "devdoc": {
    "kind": "dev",
    "methods": {},
    "version": 1
  },
  "userdoc": {
    "kind": "user",
    "methods": {},
    "version": 1
  }
}